:020000040000FA
:100000000C9472000C949A000C949A000C949A0030
:100010000C949A000C949A000C949A000C94870902
:100020000C949A000C949A000C949A000C949A00E8
:100030000C949A000C949A000C949A000C949A00D8
:100040000C943D090C949A000C94090A0C94E30951
:100050000C949A000C949A000C949A000C949A00B8
:100060000C943B0A0C949A0005A84CCDB2D44EB91E
:100070003836A9020C50B9918688083CA6AAAA2A4B
:10008000BE000000803F0200000000240027002A7C
:100090000000000000250028002B000000000023C5
:1000A00000260029000404040404040404020202DB
:1000B00002020203030303030301020408102040A9
:1000C0008001020408102001020408102000000032
:1000D0000800020100000304070000000000000007
:1000E00000005A0B11241FBECFEFD8E0DEBFCDBFFA
:1000F00013E0A0E0B1E0E2E3FAE202C005900D9265
:10010000AC3AB107D9F727E0ACEAB3E001C01D92E1
:10011000A93AB207E1F710E0C2E7D0E004C02197A6
:10012000FE010E940815C137D107C9F70E94A10B33
:100130000C9417150C9400008091150490911604EE
:10014000891B990B0895833081F028F4813099F050
:100150008230A9F008958730A9F08830C9F0843042
:10016000B1F4809180008F7D03C0809180008F77F3
:1001700080938000089584B58F7784BD089584B5F9
:100180008F7DFBCF8091B0008F778093B000089572
:100190008091B0008F7DF9CFCF93DF93EFECF0E04B
:1001A0008491EBEBF0E0D491E7EAF0E0C491CC234A
:1001B000A1F081110E94A300EC2FF0E0EE0FFF1FD1
:1001C000E556FF4FA591B491EC91ED2381E090E0CD
:1001D00009F480E0DF91CF91089580E090E0FACFBC
:1001E0001F93CF93DF93282F30E0F901E353FF4FA4
:1001F0008491F901E754FF4FD491F901EB55FF4F7A
:10020000C491CC23A9F0162F81110E94A300EC2FDA
:10021000F0E0EE0FFF1FEF56FF4FA591B4918FB79F
:10022000F894EC91111108C0D095DE23DC938FBFB8
:10023000DF91CF911F910895DE2BF8CFCF93DF93FD
:1002400090E0FC01E754FF4F24918B559F4FFC0138
:1002500084918823D1F090E0880F991FFC01E95721
:10026000FF4FA591B491FC01EF56FF4FC591D4917A
:1002700061110EC09FB7F8948C91E22FE0958E2308
:100280008C932881E223E8839FBFDF91CF9108956B
:100290008FB7F894EC91E22BEC938FBFF6CF8E5092
:1002A000806480937C0080917A00806480937A00DF
:1002B00080917A0086FDFCCF809178009091790042
:1002C00008953FB7F8948091110490911204A09181
:1002D0001304B091140426B5A89B05C02F3F19F054
:1002E0000196A11DB11D3FBFBA2FA92F982F8827B6
:1002F000BC01CD01620F711D811D911D42E0660F91
:10030000771F881F991F4A95D1F708958F929F9262
:10031000AF92BF92CF92DF92EF92FF924B015C01BE
:100320000E9461016B017C010E9461016C197D09D1
:100330008E099F09683E734081059105A8F321E06D
:10034000821A9108A108B10888EEC80E83E0D81E71
:10035000E11CF11C81149104A104B10429F7FF9060
:10036000EF90DF90CF90BF90AF909F908F900895C7
:100370000895089590912B0189130BC0E6E8F0E0F1
:10038000E4919FEF90932B01E13049F028F0E230A7
:1003900061F060E00C94F00010926E00FACF909142
:1003A0006F009D7F90936F00F4CF909170009D7FC0
:1003B0009093700091E09093B0009091B100987F7D
:1003C00094609093B1001092B300E3CFAF92BF92CC
:1003D000CF92DF92EF92FF920F931F93CF93DF9311
:1003E0006C017B018B01040F151FEB015E01AE1840
:1003F000BF08C017D10759F06991D601ED91FC9162
:100400000190F081E02DC6010995892B79F7C5018E
:10041000DF91CF911F910F91FF90EF90DF90CF90E0
:10042000BF90AF900895FC01538D448D252F30E08F
:10043000842F90E0821B930B541710F0CF960895F1
:1004400001970895FC01918D828D981761F0A28D1E
:10045000AE0FBF2FB11D5D968C91928D9F5F9F73E4
:10046000928F90E008958FEF9FEF0895FC01918D9A
:10047000828D981731F0828DE80FF11D858D90E007
:1004800008958FEF9FEF0895FC01918D228D892FA4
:1004900090E0805C9F4F821B91098F73992708958C
:1004A00083EF96E00E94440221E0892B09F420E0CA
:1004B000822F089580E090E0892B29F00E9450025D
:1004C00081110C9400000895FC01A48DA80FB92F90
:1004D000B11DA35ABF4F2C91848D90E001968F736C
:1004E0009927848FA689B7892C93A089B1898C918B
:1004F000837080648C93938D848D981306C00288DA
:10050000F389E02D80818F7D80830895EF92FF92A3
:100510000F931F93CF93DF93EC0181E0888F9B8D26
:100520008C8D98131AC0E889F989808185FF15C0E0
:100530009FB7F894EE89FF896083E889F989808103
:100540008370806480839FBF81E090E0DF91CF91D2
:100550001F910F91FF90EF900895F62E0B8D10E0F4
:100560000F5F1F4F0F731127E02E8C8D8E110CC063
:100570000FB607FCFACFE889F989808185FFF5CFAE
:10058000CE010E946402F1CFEB8DEC0FFD2FF11D27
:10059000E35AFF4FF0829FB7F8940B8FEA89FB89EB
:1005A00080818062CFCFCF93DF93EC01888D882349
:1005B000B9F0AA89BB89E889F9898C9185FD03C0C6
:1005C000808186FD0DC00FB607FCF7CF8C9185FFAB
:1005D000F2CF808185FFEDCFCE010E946402E9CF8A
:1005E000DF91CF91089508952091CD03260F3327F1
:1005F000331F21323105ECF42091C906FC0190E053
:1006000080E0243069F082E00895A091CD0321912B
:10061000AC0143555C4FA40FB52FB11D2C9301962F
:10062000861798F38091CD03680F6093CD0380E027
:10063000089581E008951092C90681E08093C8066C
:100640001092A30661E082E10E94F00061E083E184
:100650000E94F000E9EBF0E080818E7F8083808152
:100660008D7F808388E48093B80085E48093BC000C
:100670000895CF93DF9391E09093AC038823B9F072
:10068000C091B800D091BA008091BC008A7B809361
:10069000BC0060E082E10E94F00060E083E10E9423
:1006A000F0000E941B03D093BA00C093B800DF9102
:1006B000CF9108958F929F92AF92BF92CF92DF9287
:1006C000EF92FF920F931F93CF93DF93D091F20697
:1006D000D13208F0D7C0182FC091F1060E946101F5
:1006E0006B017C018091C90681116BC082E080930F
:1006F000C9061093C8068FEF8093C7061092C606EE
:10070000D093C506A1EDB6E0E5EAF6E080E0D813A7
:1007100091C01092A4068091A406CC0FC82BC09360
:10072000A4068091A306813009F088C01092A30628
:100730000E9461016B017C018091A4068093BB0043
:100740008091CB069091CC06A091CD06B091CE06BB
:10075000892B8A2B8B2BA1F00E9461010091CB0683
:100760001091CC062091CD063091CE066C197D09F2
:100770008E099F09061717072807390708F442C092
:100780008091BC0083FDD8CF85EC8093BC000E9493
:1007900061016B017C018091C906823009F450C06F
:1007A0008091C7068F3F09F46FC08091C7068032E1
:1007B00009F46CC08091C706803309F469C084E0F5
:1007C00026C08091CB069091CC06A091CD06B09129
:1007D000CE06892B8A2B8B2B09F484CF0E946101D2
:1007E0008090CB069090CC06A090CD06B090CE061F
:1007F0006C197D098E099F0986169706A806B90609
:1008000008F070CF8091CA060E94390385E01092EB
:10081000D0061092F2061092CF06DF91CF911F9171
:100820000F91FF90EF90DF90CF90BF90AF909F908F
:100830008F9008959D9191938F5F69CF85EEA5CF9D
:100840008091CB069091CC06A091CD06B091CE06BA
:10085000892B8A2B8B2B09F49ECF0E94610100917A
:10086000CB061091CC062091CD063091CE066C19A6
:100870007D098E099F09061717072807390708F011
:100880008ACFC0CF81E0C3CF80E0C1CF82E0BFCFAD
:1008900083E0BDCF1F93CF93DF93162FCCE9D7E032
:1008A000AB85BC859C8121E02093CF069093F10617
:1008B0001092D0061092F206ED91FC9111970190E2
:1008C000F081E02D682FCD0109958B859C85DC0199
:1008D000ED91FC910190F081E02D612F099581E06F
:1008E000DF91CF911F910C945A030F931F93CF93D5
:1008F000DF938C01EB01DC011B968D919C9121E033
:100900002093CF062EE32093F1061092D00610928A
:10091000F206DC01ED91FC910190F081E02D6881FF
:100920000995F80183859485DC01ED91FC91019096
:10093000F081E02D6981099581E0DF91CF911F91D0
:100940000F910C945A03CF93DF9300D0CDB7DEB74D
:1009500090E899838A83BE016F5F7F4F8CE997E0AF
:100960000E9475040F900F90DF91CF910895CF935F
:10097000DF9300D0CDB7DEB720E429836A83BE01C0
:100980006F5F7F4F0E94750481E090E00F900F90A1
:10099000DF91CF9108950895E09116048091150498
:1009A000E81730F4F0E0E95EFB4F808190E00895B5
:1009B0008FEF9FEF089590911604809115042FEF0B
:1009C0003FEF981748F4E92FF0E0E95EFB4F2081F4
:1009D00030E09F5F90931604C9010895CF92DF9293
:1009E000EF92FF920F931F93CF93DF937C01CB0184
:1009F0008A012091CF06222389F0EB016B01C40EFE
:100A0000D51ECC15DD0569F06991D701ED91FC91FA
:100A10000190F081E02DC7010995F3CF642F0E946A
:100A2000F402C801DF91CF911F910F91FF90EF90D9
:100A3000DF90CF900895CF93DF931F92CDB7DEB7AD
:100A400069832091CF062223F9F02091F20620320B
:100A500058F021E030E0FC013383228390E080E015
:100A60000F90DF91CF9108958091D006E82FF0E0AC
:100A7000EF52F94F998190838F5F8093D0068093D6
:100A8000F20681E090E0ECCF61E0CE0101960E9499
:100A9000F402F7CF90E080E0089521E02093CF06A4
:100AA00028E52093F1061092D0061092F20642E05B
:100AB00050E0BC0180E997E00E94EE0481E00E94D2
:100AC0005A0390E080E008954F925F926F927F9278
:100AD000AF92BF92CF92DF92EF92FF920F931F934C
:100AE000CF93DF93CDB7DEB7D4500FB6F894DEBF07
:100AF0000FBECDBFCDB6DEB67C01EE0CFF1CE80EFE
:100B0000F91E8DB79EB78E199F090FB6F8949EBF38
:100B10000FBE8DBF01965C010E9461012B013C015B
:100B20008091C906811168C01E2D113208F010E2B3
:100B300081E08093C9068093C8069FEF9093C70613
:100B40001092C606910F9093C5068093A4068091DB
:100B5000A406806B8093A4068091A306813009F0DF
:100B6000BCC01092A3060E9461012B013C01809140
:100B7000A4068093BB008091CB069091CC06A091F7
:100B8000CD06B091CE06892B8A2B8B2BA1F00E942B
:100B900061012091CB063091CC064091CD06509159
:100BA000CE0664197509860997092617370748077D
:100BB000590708F442C08091BC0083FDD8CF85EC72
:100BC0008093BC000E9461012B013C018091C90609
:100BD000813009F484C08091C606811710F4109109
:100BE000C606E5EAF6E0A7E1B4E080E0811751F13E
:100BF00091919D938F5FFACF8091CB069091CC0617
:100C0000A091CD06B091CE06892B8A2B8B2B09F4AF
:100C100087CF0E9461010091CB061091CC062091F4
:100C2000CD063091CE066419750986099709061715
:100C300017072807390708F073CF8091CA060E946A
:100C4000390310E0109216041093150400E080910F
:100C50001604181771F080E997E00E94DB0491E018
:100C6000900FF501E00FF11D80839E151F0408F41D
:100C700058C08E010F5F1F4FA701B501C8010E9428
:100C80000E150FB6F894DEBE0FBECDBEA7E3B4E0DE
:100C9000F80121E3CF01801B910B8E159F0508F40D
:100CA00042C090E080E00FB6F894DEBE0FBECDBE2D
:100CB000DC5F0FB6F894DEBF0FBECDBFDF91CF91E2
:100CC0001F910F91FF90EF90DF90CF90BF90AF906A
:100CD0007F906F905F904F90089585EE71CF8091D7
:100CE000CB069091CC06A091CD06B091CE06892B73
:100CF0008A2B8B2B09F46ACF0E9461012091CB06CD
:100D00003091CC064091CD065091CE0664197509FC
:100D100086099709261737074807590708F056CF5D
:100D20008CCF092F94CF52814081842F809598E0F9
:100D300087FF03C0880F822701C0880F9150C1F739
:100D40003181832798E087FF03C0880F822701C085
:100D5000880F9150C1F71296581308C01C964C93F7
:100D60001C971D963C931D97339694CF8FEF9FEF62
:100D70009ACF4F925F926F927F928F929F92AF9293
:100D8000BF92CF92DF92EF92FF920F931F93CF9378
:100D9000DF93CDB7DEB7DC014DB65EB6E09043041D
:100DA000F0904404F7016281738110E000E090E06C
:100DB000292F30E026173707E8F02617370759F5AF
:100DC000EE24EA94FE2CC7010FB6F8945EBE0FBE67
:100DD0004DBEDF91CF911F910F91FF90EF90DF906B
:100DE000CF90BF90AF909F908F907F906F905F90CB
:100DF0004F900895220F331FF70140815181240F36
:100E0000351FF90100811181F80180858A171B06C1
:100E100011F09F5FCDCF0115110591F2D801CD9052
:100E2000DD90ED90FC90B5E0CB0ED11CE11CF11CE7
:100E3000C80109960E944D05019611F2C701B6013D
:100E400028EE33E040E050E00E947614CA01B90178
:100E50006F5F7F4F8F4F9F4F0E948601D80116967C
:100E60008D919C91F12CE12C009709F4ACCF21E0FD
:100E700030E030933804209337040E9464057C01ED
:100E8000892B09F09DCF6DB67EB6F801468157815A
:100E90006A01F1E0CF1AD1084A01880C991C8DB77C
:100EA0009EB7881999090FB6F8949EBF0FBE8DBFE3
:100EB0000196E5E4F4E0DC0130E020E0421753075E
:100EC00091F457E3A52E54E0B52E880E991ED7FE57
:100ED00011C00FB6F8947EBE0FBE6DBE10923804DE
:100EE0001092370470CF619171916D937D932F5F54
:100EF0003F4FE4CFD4019E918E914D0198278927D1
:100F00009827F80126813781215030482C193D0956
:100F1000220F331F44815581240F351FD901ED91D4
:100F2000FC910190F081E02D309759F00995F50181
:100F300097878687B1E0CB1AD108E2E0AE0EB11CEC
:100F4000C6CFD5011F969C938E931E97F3CFFB01BE
:100F500001900020E9F73197AF01461B570BDC01E8
:100F6000ED91FC910280F381E02D09948F929F9284
:100F7000AF92BF920F931F93CF93DF93CDB7DEB79E
:100F8000A1970FB6F894DEBF0FBECDBF19A24230B5
:100F900008F44AE08E010F5D1F4F842E912CB12C76
:100FA000A12CA50194010E947614E62FB901CA0173
:100FB000EA3004F5E05DD801EE938D01232B242B5C
:100FC000252B79F790E080E0109729F0BD018CE99E
:100FD00097E00E94A707A1960FB6F894DEBF0FBE58
:100FE000CDBFDF91CF911F910F91BF90AF909F9098
:100FF0008F900895E95CDFCFCF92DF92EF92FF925E
:10100000CF93DF936B017C016DE28CE997E00E9446
:10101000B704EC0166277727CB016C197D098E098F
:101020009F094AE00E94B6078C0F9D1FDF91CF9168
:10103000FF90EF90DF90CF900895BC018CE997E08E
:101040000C94A7070F931F93CF93DF93EC010E949B
:10105000A7078C016DE473E0CE010E94A707800F03
:10106000911FDF91CF911F910F9108958F929F92C1
:10107000AF92BF92CF92DF92EF92FF92CF93C82FA1
:1010800080E593E00E941D08C0902701D0902801C0
:10109000E0902901F0902A01A7019601C701B6014D
:1010A0000E94D51366E573E081111AC0460157010D
:1010B000E894B7F82FEF3FEF4FE75FE7C501B401C2
:1010C0000E94D513811120C02FEF3FEF4FE75FE75C
:1010D000C501B4010E9403121816B4F46AE573E066
:1010E0008CE997E00E94A707CC2309F484C082E62C
:1010F00093E0CF91FF90EF90DF90CF90BF90AF90B3
:101100009F908F900C941D082FEF3FEF4FE75FE407
:10111000C701B6010E945B1318161CF46EE573E05C
:10112000DFCF2FEF3FEF4FE75FECC701B6010E9423
:10113000031287FDF3CF20E030E0A901C701B6011B
:101140000E94031287FF09C06DE28CE997E00E94BC
:10115000B704F7FAF094F7F8F0942AE037ED43EA91
:101160005BE3C701B6010E9497114B015C010E942D
:101170007A126B017C010E94A9129B01AC01C5018E
:10118000B4010E9496114B015C014AE0C701B6010F
:101190000E94B6076EE28CE997E00E94B70420E057
:1011A00030E040E251E4C501B4010E9460134B01FC
:1011B0005C010E947A126B01F12CE12C4AE0C7011C
:1011C000B6010E94B607C701B6010E94A9129B0191
:1011D000AC01C501B4010E94961120E030E040E26C
:1011E00051E40E9460130E947A1290E080E04AE08D
:1011F0000E94B60779CFCF91FF90EF90DF90CF900C
:10120000BF90AF909F908F90089585ED8093BC0024
:101210008091CB069091CC06A091CD06B091CE06E0
:101220000796A11DB11D23E0B695A79597958795C3
:101230002A95D1F72091BC0024FD03C01092C90665
:1012400008954091CB065091CC066091CD067091E7
:10125000CE06452B462B472B69F30097A105B10518
:1012600041F02AE22A95F1F700C00197A109B109DE
:10127000E1CF8091CA060C9439031F920F920FB6EA
:101280000F9211242F933F938F939F93AF93BF930C
:1012900080910D0490910E04A0910F04B091100460
:1012A00030910C0423E0230F2D3758F50196A11D32
:1012B000B11D20930C0480930D0490930E04A09311
:1012C0000F04B09310048091110490911204A09126
:1012D0001304B09114040196A11DB11D8093110453
:1012E00090931204A0931304B0931404BF91AF9190
:1012F0009F918F913F912F910F900FBE0F901F9054
:10130000189526E8230F0296A11DB11DD2CF1F927A
:101310000F920FB60F9211242F933F934F935F9329
:101320006F937F938F939F93AF93BF93EF93FF93AD
:101330008091F9039091FA03A091FB03B091FC0313
:10134000892B8A2B8B2BD1F19091F403E091F5033B
:10135000F091F6038081892780838091F903909131
:10136000FA03A091FB03B091FC03181619061A06A4
:101370001B069CF48091F9039091FA03A091FB0362
:10138000B091FC030197A109B1098093F9039093EF
:10139000FA03A093FB03B093FC03FF91EF91BF917D
:1013A000AF919F918F917F916F915F914F913F91FD
:1013B0002F910F900FBE0F901F90189580912B01C9
:1013C0000E94BA01EACF1F920F920FB60F9211241A
:1013D0002F933F934F935F936F937F938F939F933D
:1013E000AF93BF93EF93FF9383EF96E00E94640265
:1013F000FF91EF91BF91AF919F918F917F916F91ED
:101400005F914F913F912F910F900FBE0F901F90C2
:1014100018951F920F920FB60F9211242F938F934E
:101420009F93EF93FF93E0910307F091040780816E
:10143000E0910907F0910A0782FD1BC0908180911D
:101440000C078F5F8F7320910D07821741F0E09199
:101450000C07F0E0ED50F94F958F80930C07FF914A
:10146000EF919F918F912F910F900FBE0F901F9032
:1014700018958081F4CF1F920F920FB60F9211240E
:101480002F933F934F935F936F937F938F939F938C
:10149000AF93BF93EF93FF938091B900887F80361D
:1014A00009F44AC0F0F5883209F4A7C018F5803174
:1014B00009F49BC0B8F4882309F4F9C0883009F412
:1014C00094C0FF91EF91BF91AF919F918F917F91C8
:1014D0006F915F914F913F912F910F900FBE0F90A1
:1014E0001F901895883109F488C0803251F7809395
:1014F000C70614C0803409F49DC040F48033B9F3AA
:101500008833F9F68093C70685ECB0C0803509F4BE
:1015100085C0883509F496C0883499F60E9405097B
:10152000D0CF883909F48CC038F5883729F050F4C9
:10153000883611F0803729F683E08093C90610922F
:10154000EF0357C0883809F47BC0803919F0803820
:1015500009F0B7CF8091EF03803208F071C0E091BD
:10156000EF0381E08E0F8093EF038091BB00F0E0EA
:10157000E153FC4F80833DC0803B39F0E0F4803A7A
:1015800009F479C0883A09F09CCF84E08093C906B9
:101590001092CE031092CD03E091F003F091F1038D
:1015A00009958091CD0381110FC081E08093CD0317
:1015B0001092AD0309C0803C09F4A6CF883C09F421
:1015C000A3CF883B09F07DCFE091CE0381E08E0F61
:1015D0008093CE03F0E0E355FC4F80818093BB0005
:1015E0009091CE038091CD0329C08091A406809371
:1015F000BB0085EC8093BC0064CF9091C6068091BF
:10160000C506981758F5E091C60681E08E0F8093C5
:10161000C606F0E0EB55F94F8081E9CFE091C606B0
:1016200081E08E0F8093C6068091BB00F0E0EB5501
:10163000F94F80839091C6068091C5069817C8F22D
:1016400085E8D8CFE091C60681E08E0F8093C6066C
:101650008091BB00F0E0EB55F94F80838091C80684
:1016600081115CCF81E08093A30684EA8093BC0063
:101670001092C90626CF85EC8093BC001092C90653
:101680008091EF03803230F4E091EF03F0E0E1531A
:10169000FC4F10826091EF0370E0E091F203F09153
:1016A000F3038FEC93E009951092EF030ACF1092A9
:1016B000C70634CFE3EFF6E01382128288EE93E0A0
:1016C000A0E0B0E084839583A683B78321E233E072
:1016D0003183208325EC30E03587248724EC30E00B
:1016E0003787268720EC30E0318B208B21EC30E0EF
:1016F000338B228B22EC30E0358B248B26EC30E0D0
:10170000378B268B118E128E138E148EE0E9F7E044
:101710001382128284839583A683B78383E393E045
:1017200091838083ECE9F7E01382128285E493E0F1
:101730009183808315821682178210861186128605
:101740000895CF93DF93CDB7DEB72E970FB6F894F9
:10175000DEBF0FBECDBF789484B5826084BD84B5F2
:10176000816084BD85B5826085BD85B5816085BD9C
:1017700080916E00816080936E0010928100809154
:1017800081008260809381008091810081608093DC
:101790008100809180008160809380008091B10001
:1017A00084608093B1008091B00081608093B0002C
:1017B00080917A00846080937A0080917A008260C0
:1017C00080937A0080917A00816080937A00809182
:1017D0007A00806880937A001092C100E09103073C
:1017E000F091040712E01083E091FF06F0910007EA
:1017F0001082E0910107F09102078FEC8083109234
:101800000B07E0910707F091080786E08083E091DD
:101810000507F0910607808180618083E0910507CC
:10182000F0910607808188608083E0910507F09140
:101830000607808180688083E0910507F0910607A4
:1018400080818F7D80836AE673E083EF96E00E945B
:10185000220880E997E09093A8078093A707109249
:101860001604109215041092D0061092F2060E94EF
:101870001B0388EB91E09093F1038093F00389EBD5
:1018800091E09093F3038093F2038091A107982F46
:1018900098609093A1071093A5071092A607EBE319
:1018A000FDE03197F1F788620E94A3048BE496E48F
:1018B0000197F1F78091A10780620E94A30483E55C
:1018C00092E00197F1F78091A10780620E94A30442
:1018D0008091A10780620E94A30484E08093A20704
:1018E0008CE00E94A30481E00E94A3048BE39FE1AB
:1018F0000197F1F71093A30786E00E94A30481E00B
:101900008093CF0610E31093F1061092D006109248
:10191000F2060E945A03811145C01093A00767E0A8
:101920000E944A048BE193E00197F1F765E184E0BE
:101930000E944A048091A0076FEF803309F040C0F5
:1019400086E00E944A046FEF87E00E944A046FEF2E
:1019500088E00E944A0410923804109237041092D2
:101960001604109215041092D0061092F2060E94EE
:101970001B0388EB91E09093F1038093F00389EBD4
:1019800091E09093F3038093F2038BE193E00E9444
:101990004D050196F9F460E773E083EF96E00E944D
:1019A0002208FFCF82E68093A00760E080E00E94DB
:1019B0004A046FEF88E00E944A0460E281E0B8CFF9
:1019C00084E00E944A046FEF83E00E944A046FEFB4
:1019D00082E0BFCF61E070E080E090E00E9486018D
:1019E00082E090E00E9464050196A9F260914504AE
:1019F0007091460480914704909148040E94B71466
:101A00006B877C878D879E87A0914504AB83A090D0
:101A10004604B090470410914804B0914904A09145
:101A20004A04F0914B04E0914C042B813A2D4B2D4C
:101A3000512F6B2F7A2F8F2F9E2F00E20E94D914E7
:101A40001901D22EC32CF12CE12C7601DD24CC24FB
:101A50002B813A2D4B2D512F6B2F7A2F8F2F9E2FAD
:101A600000E30E94D9142901522645245424712CE4
:101A7000612C4C285D286E287F28530142014B853C
:101A80005C856D857E859A01AB0160E070E0CB01DD
:101A90002B833C834D835E836F83788789879A8706
:101AA00060E070E080E090E000E20E94BE1428292F
:101AB00039294A295B2900E10E94D914209339046D
:101AC00030933A0440933B0450933C0460933D04AC
:101AD00070933E0480933F049093400489E193E027
:101AE0000E944D05019609F456CF62E070E080E057
:101AF00090E00E94860181E090E00E9464050196DA
:101B000009F449CF40914504509146045427452794
:101B100054275093420440934104C0902201D09036
:101B20002301D6011696ED91FC9130E020E02E17AE
:101B30003F07F9F0D60114968D919C91B901660F7B
:101B4000771F860F971FDC016D917C91CA01862754
:101B50009727607E7727672B49F4917F892B19F4AB
:101B600030E020E00CC02F5F3F4FE1CF807E917FBF
:101B7000F5CFF1E1CF2EF3E0DF2E2FEF3FEFA09175
:101B80002401B091250116960D911C91179770E0D4
:101B900060E00617170701F114968D919C91159737
:101BA0007B01EE0CFF1C8E0D9F1DFC01E080F1807F
:101BB000C70184279527F0EEEF22FF24EF2849F490
:101BC000917F892B19F430E020E007C06F5F7F4FD1
:101BD000E0CF807E917FF5CFD601B0934404A093EF
:101BE00043042F3F3F4F09F4D6CE90E080E00E949F
:101BF000B906892B09F0CFCE8AE090E00E94B906A1
:101C0000019631F46BE773E08CE997E00E942208BB
:101C100090E080E00E94B90661E083E00E941E012E
:101C200060E082E00E941E0188248A94982C54016E
:101C300001E05CEB252E50E0352E15E081E090E0D0
:101C40000E94B906019609F4B9C1809145049091AA
:101C50004604909306048093050480914704909174
:101C6000480490930804809307040E94CC000197D5
:101C700049F4809126018027809326010E94CC00A0
:101C80000197E1F3C0900704D090080481E078EE5A
:101C9000C71673E0D7060CF080E080932E01E09029
:101CA0000504F090060481E09CE2E91691E0F90653
:101CB0000CF080E080932D01409027015090280186
:101CC0006090290170902A0120E030E040E751EC5B
:101CD000C301B2010E945B1318160CF079C120E019
:101CE00030E040EF51E4C301B2010E940312881FAB
:101CF0008827881F80932C0110912601112361F001
:101D0000A8EECA16A3E0DA063CF4BCE2EB16B1E09A
:101D1000FB0614F4182F102710930B048FE00E9479
:101D20004F01BC01990F880B990B0E94AB1220E068
:101D300030E040EA50E40E94601320E030E040E8E8
:101D40005AE30E94601320E030E040E05FE30E942D
:101D5000961120E030E048EC52E40E94601360935A
:101D60002701709328018093290190932A01112360
:101D700009F447C22FB7F89460910D0470910E04D6
:101D800080910F04909110042FBF0E94A91220E0AF
:101D900030E048E453E40E9408120E94CD1320E092
:101DA00030E04AEF53E40E94601320E030E84BE358
:101DB00054E40E9497110E947A126B0180912B01CA
:101DC000833009F007C1E6E8F0E0149117FDA2C0E6
:101DD00061E083E00E941E01112319F0123009F026
:101DE000C3C1F12CE12C60E072E18AE790E0A70129
:101DF00096010E94981429013A01DA01C90101975C
:101E0000A109B1098F3F9105A105B10509F00CF4B5
:101E100092C160E472E48FE090E0A70196010E9415
:101E200098142150310941095109123009F044C177
:101E300082E02F3F31054105510509F00CF45BC0EC
:101E400060E970ED83E090E0A70196010E9498148C
:101E5000215031094109510983E02F3F31054105E6
:101E6000510509F00CF447C068E478EE81E090E099
:101E7000A70196010E949814215031094109510986
:101E800084E02F3F310541055105A9F1A4F164E239
:101E900074EF80E090E0A70196010E949814215011
:101EA00031094109510985E02F3F310541055105AF
:101EB00011F108F162E17AE780E090E0A701960174
:101EC0000E949814215031094109510986E02F3FA1
:101ED00031054105510579F070F08AE075946794F9
:101EE000579447948A95D1F7A30192012150310963
:101EF0004109510987E09091B100987F892B809327
:101F0000B100113009F45BC1123009F46AC1112328
:101F100009F419C18EE00E944F016CE271E00E9449
:101F2000621470930A046093090481E00E94A30480
:101F30008BE39FE10197F1F780E889838A83BE01F3
:101F40006F5F7F4F8CE997E00E94750480910B04CE
:101F5000882309F463C185E993E00E941D088091FC
:101F60002E01882309F451C184E693E00E941D08E4
:101F70008BE993E00E941D0880912D01882309F4CC
:101F800047C184E693E00E941D0880E8898380ECC5
:101F90008A83BE016F5F7F4F8CE997E00E947504D2
:101FA00080E593E00E941D0880912C01882309F4AC
:101FB00032C184E693E00E941D0840C1115009F02F
:101FC0003DCE61E973E083EF96E00E9422084DCE9A
:101FD00080E090CE8F3F09F09DCF83E080932B016E
:101FE000E6E8F0E014911F3F09F494CF113021F19D
:101FF00050F0123009F43EC017FD8CCF61E083E051
:102000000E941E01EBCE14BC15BC84B5826084BD59
:1020100085B5816085BDE8EAF0E08491E82FF0E0C5
:10202000EE0FFF1FEF56FF4F85919491F1018491C0
:102030008093F80310E0CCCE1092800010928100C3
:10204000809181008860809381008091810081600F
:1020500080938100E8EAF0E08491E82FF0E0EE0F51
:10206000FF1FEF56FF4F85919491F101849180936A
:10207000F703AECE1092B0001092B1008091B00084
:1020800082608093B0008091B10081608093B10044
:10209000E8EAF0E08491E82FF0E0EE0FFF1FEF5642
:1020A000FF4F859194919093F6038093F503F1018E
:1020B00084918093F4038CCE2F3F31054105510567
:1020C00009F00CF44FC068E478EE81E090E0A701DD
:1020D00096010E949814215031094109510984E068
:1020E0001111E2CE83E02F3F31054105510539F151
:1020F00034F162E17AE780E090E0A70196010E9466
:102100009814215031094109510984E02F3F3105CC
:1021100041055105A1F098F09AE0759467945794A1
:1021200047949A95D1F7A3019201215031094109B1
:10213000510985E004C09C0181E01111DCCE95B508
:10214000987F892B85BD27BD80920104909202045F
:10215000A0920304B092040480916E008260809388
:102160006E00D8CE82E0E9CFF12CE12C60E072E184
:102170008AE790E0A70196010E9498142150310946
:102180004109510991E021153105F1E04F07510551
:102190006CF068E478EE81E090E0A70196010E947F
:1021A0009814215031094109510993E0113009F087
:1021B000A8CE80918100887F892B80938100309305
:1021C0008900209388008092FD039092FE03A092E4
:1021D000FF03B092000480916F00826080936F00D3
:1021E00099CE2093B3008092F9039092FA03A092C3
:1021F000FB03B092FC0380917000826080937000BA
:1022000089CE83E00E94BA0185CE87E693E0AECE08
:1022100087E693E0B8CE87E693E0CDCE80910904BF
:1022200090910A048130910509F450C0A0F08230E9
:10223000910509F462C0039709F476C080E090E04C
:10224000892B09F4FACC0E945002882309F4F0CCBF
:102250000E940000EDCC86E993E00E941D08609189
:10226000070470910804072E000C880B990B97FF48
:1022700025C00E94FC0782EA93E00E941D088CE9B9
:1022800093E00E941D086091050470910604072EDA
:10229000000C880B990B97FF15C00E94FC0780E883
:1022A000898380EC8A83BE016F5F7F4F8CE997E062
:1022B0000E94750480E00E943608C0CF4AE00E9468
:1022C000B607D9CF4AE00E94B607E9CF86E993E086
:1022D0000E941D086091070470910804072E000CED
:1022E000880B990B97FF05C00E94FC0784EA93E0D6
:1022F00062CE4AE00E94B607F9CF8CE993E00E94D3
:102300001D086091050470910604072E000C880BCF
:10231000990B97FF05C00E94FC0788EA93E04BCE1B
:102320004AE00E94B607F9CF81E0C5CF5058BB27DD
:10233000AA270E94AE110C9421130E94131338F0A7
:102340000E941A1320F039F49F3F19F426F40C94DC
:1023500010130EF4E095E7FB0C940A13E92F0E948A
:10236000321358F3BA17620773078407950720F0F2
:1023700079F4A6F50C9454130EF4E0950B2EBA2FB5
:10238000A02D0B01B90190010C01CA01A00111247B
:10239000FF27591B99F0593F50F4503E68F11A1627
:1023A000F040A22F232F342F4427585FF3CF4695B8
:1023B00037952795A795F0405395C9F77EF41F16DA
:1023C000BA0B620B730B840BBAF09150A1F0FF0FA4
:1023D000BB1F661F771F881FC2F70EC0BA0F621F90
:1023E000731F841F48F4879577956795B795F79580
:1023F0009E3F08F0B0CF9395880F08F09927EE0F15
:102400009795879508950E94E61208F481E0089553
:102410000E941C120C9421130E941A1358F00E945F
:10242000131340F029F45F3F29F00C940A13511163
:102430000C9455130C9410130E94321368F39923D3
:10244000B1F3552391F3951B550BBB27AA276217B0
:102450007307840738F09F5F5F4F220F331F441FBD
:10246000AA1FA9F335D00E2E3AF0E0E832D09150F1
:102470005040E695001CCAF72BD0FE2F29D0660FDE
:10248000771F881FBB1F261737074807AB07B0E821
:1024900009F0BB0B802DBF01FF2793585F4F3AF027
:1024A0009E3F510578F00C940A130C9455135F3F2E
:1024B000E4F3983ED4F3869577956795B795F795AD
:1024C0009F5FC9F7880F911D9695879597F9089595
:1024D000E1E0660F771F881FBB1F62177307840731
:1024E000BA0720F0621B730B840BBA0BEE1F88F740
:1024F000E09508950E943A1388F09F5798F0B92FFD
:102500009927B751B0F0E1F0660F771F881F991F28
:102510001AF0BA95C9F714C0B13091F00E94541363
:10252000B1E008950C945413672F782F8827B85F73
:1025300039F0B93FCCF3869577956795B395D9F780
:102540003EF490958095709561957F4F8F4F9F4F8A
:102550000895E89409C097FB3EF490958095709596
:1025600061957F4F8F4F9F4F9923A9F0F92F96E9DF
:10257000BB279395F695879577956795B795F11154
:10258000F8CFFAF4BB0F11F460FF1BC06F5F7F4FF1
:102590008F4F9F4F16C0882311F096E911C0772303
:1025A00021F09EE8872F762F05C0662371F096E80C
:1025B000862F70E060E02AF09A95660F771F881FDB
:1025C000DAF7880F9695879597F90895990F00087F
:1025D000550FAA0BE0E8FEEF16161706E807F907F5
:1025E000C0F012161306E407F50798F0621B730B90
:1025F000840B950B39F40A2661F0232B242B252B11
:1026000021F408950A2609F4A140A6958FEF811DB3
:10261000811D089597F99F6780E870E060E0089554
:102620009FEF80EC089500240A94161617061806EA
:102630000906089500240A941216130614060506C6
:102640000895092E0394000C11F4882352F0BB0F57
:1026500040F4BF2B11F460FF04C06F5F7F4F8F4FBA
:102660009F4F089557FD9058440F551F59F05F3FF5
:1026700071F04795880F97FB991F61F09F3F79F0A4
:1026800087950895121613061406551FF2CF469526
:10269000F1DF08C0161617061806991FF1CF8695A8
:1026A0007105610508940895E894BB27662777278C
:1026B000CB0197F908950E94E61208F48FEF089570
:1026C0000E9473130C9421130E94131338F00E947C
:1026D0001A1320F0952311F00C940A130C94101384
:1026E00011240C9455130E94321370F3959FC1F37B
:1026F000950F50E0551F629FF001729FBB27F00DB0
:10270000B11D639FAA27F00DB11DAA1F649F662704
:10271000B00DA11D661F829F2227B00DA11D621F53
:10272000739FB00DA11D621F839FA00D611D221F0D
:10273000749F3327A00D611D231F849F600D211DF1
:10274000822F762F6A2F11249F5750409AF0F1F074
:1027500088234AF0EE0FFF1FBB1F661F771F881FDD
:1027600091505040A9F79E3F510580F00C940A13F8
:102770000C9455135F3FE4F3983ED4F38695779518
:102780006795B795F795E7959F5FC1F7FE2B880F83
:10279000911D9695879597F908959F930E94DC1354
:1027A0000F9007FCEE5F0C9405140E94E612880B54
:1027B000990B08950C9410130E943A13D8F3E894DF
:1027C000E0E0BB279F57F0F02AED3FE049EC06C060
:1027D000EE0FBB0F661F771F881F28F0B23A620703
:1027E0007307840728F0B25A620B730B840BE395CE
:1027F0009A9572F7803830F49A95BB0F661F771F51
:10280000881FD2F790480C941B14EF93E0FF07C089
:10281000A2EA2AED3FE049EC5FEB0E94AE110E9474
:1028200021130F90039401FC9058E8E6F0E00C941B
:1028300027149F3F31F0915020F487957795679545
:10284000B795880F911D9695879597F908959F9351
:102850008F937F936F93FF93EF939B01AC010E9443
:102860006013EF91FF910E943B142F913F914F9184
:102870005F910C946013DF93CF931F930F93FF929C
:10288000EF92DF927B018C01689406C0DA2EEF0193
:102890000E947313FE01E894A5912591359145910D
:1028A0005591A6F3EF010E94AE11FE019701A80118
:1028B000DA9469F7DF90EF90FF900F911F91CF911D
:1028C000DF91089597FB072E16F4009407D077FD4B
:1028D00009D00E94F41407FC05D03EF49095819530
:1028E0009F4F0895709561957F4F0895A1E21A2E2C
:1028F000AA1BBB1BFD010DC0AA1FBB1FEE1FFF1FA4
:10290000A217B307E407F50720F0A21BB30BE40BF3
:10291000F50B661F771F881F991F1A9469F760953A
:102920007095809590959B01AC01BD01CF010895F4
:10293000052E97FB1EF400940E94AF1457FD07D09C
:102940000E94761407FC03D04EF40C94AF145095FB
:102950004095309521953F4F4F4F5F4F089590958B
:102960008095709561957F4F8F4F9F4F0895692790
:10297000962769277827872778270895002E08301B
:1029800090F0982F872F762F652F542F432F322FBB
:1029900022270850F4CF220F331F441F551F661FF4
:1029A000771F881F991F0A95B2F7002D089597FD8C
:1029B0001094002E083098F00850232F342F452F04
:1029C000562F672F782F892F912DF4CF1594979537
:1029D00087957795679557954795379527950A95E4
:1029E000AAF71124002D0895AA1BBB1B51E107C0B3
:1029F000AA1FBB1FA617B70710F0A61BB70B881F8F
:102A0000991F5A95A9F780959095BC01CD0108951D
:102A1000EE0FFF1F0590F491E02D0994FB01DC01FE
:102A200002C001900D9241505040D8F70895F8949B
:102A3000FFCF51012F0195017301D901B701D202D6
:102A4000A7027C0251022602D202A7027C02510296
:102A50002602FB0109030103010000C841FF010137
:102A600001000068325F7369676E616C00000000EE
:102A70000000000000000000000000000000000056
:102A80000000000000657468616E6F6C5F736967B9
:102A90006E616C00000000000000000000000000FB
:102AA00000000000000000626173656C696E6532B1
:102AB0000000000000000000000000000000000016
:102AC000000000000000000000626173656C696E28
:102AD0006531000000000000000000000000000060
:102AE0000000000000000000000000636F325F651E
:102AF0007100000000000000000000000000000065
:102B00000000000000000000000000000074564FAC
:102B10004300000000000000000000000000000072
:102B2000000000000000000000000000001027006E
:102B300000000000000C20617365745F6162736FB8
:102B40006C7574655F68756D6964697479000000FF
:102B50000000000000000000400D03000001020022
:102B60000A20506D6561737572655F7369676E6188
:102B70006C73000000000000000000000000000076
:102B8000000000E80300000000000003201E69614F
:102B9000715F7365745F626173656C696E65000077
:102BA00000000000000000000000000000001027EE
:102BB0000000040102000220156961715F676574FD
:102BC0005F626173656C696E650000000000000063
:102BD00000000000000000000050C30000080102D7
:102BE000000120086961715F6D6561737572650030
:102BF00000000000000000000000000000000000D5
:102C00000000000010270000000000000020036901
:102C100061715F696E6974000000000000000000CF
:102C2000000000000000000000000000000000099B
:102C30000020000C010500FD02010016010600FF46
:102C40000201000000000000000000202F3682007A
:102C50000000008602E6011302D30244022202367B
:102C600002000000001B05EE044A05CB049C00DBBB
:102C700004CC0400000000B704E6014A05F3020D8D
:102C80000A0054454D503A006E616E00696E660050
:102C90006F76660063004F4B00524B0042656769D8
:102CA0006E00534750206661696C656400657272FE
:102CB0006F722072656164696E67207369676E6107
:102CC0006C73004552520065434F323A002054560F
:0E2CD0004F433A00200070706D00707062007B
:107E0000112484B714BE81FFF0D085E080938100F7
:107E100082E08093C00088E18093C10086E0809377
:107E2000C20080E18093C4008EE0C9D0259A86E02C
:107E300020E33CEF91E0309385002093840096BBD3
:107E4000B09BFECF1D9AA8958150A9F7CC24DD24C4
:107E500088248394B5E0AB2EA1E19A2EF3E0BF2EE7
:107E6000A2D0813461F49FD0082FAFD0023811F036
:107E7000013811F484E001C083E08DD089C08234E0
:107E800011F484E103C0853419F485E0A6D080C0E4
:107E9000853579F488D0E82EFF2485D0082F10E0AE
:107EA000102F00270E291F29000F111F8ED06801E7
:107EB0006FC0863521F484E090D080E0DECF843638
:107EC00009F040C070D06FD0082F6DD080E0C81688
:107ED00080E7D80618F4F601B7BEE895C0E0D1E017
:107EE00062D089930C17E1F7F0E0CF16F0E7DF06D8
:107EF00018F0F601B7BEE89568D007B600FCFDCFD4
:107F0000A601A0E0B1E02C9130E011968C91119780
:107F100090E0982F8827822B932B1296FA010C0160
:107F200087BEE89511244E5F5F4FF1E0A038BF0790
:107F300051F7F601A7BEE89507B600FCFDCF97BE46
:107F4000E89526C08437B1F42ED02DD0F82E2BD052
:107F50003CD0F601EF2C8F010F5F1F4F84911BD097
:107F6000EA94F801C1F70894C11CD11CFA94CF0C13
:107F7000D11C0EC0853739F428D08EE10CD085E9AC
:107F80000AD08FE07ACF813511F488E018D01DD067
:107F900080E101D065CF982F8091C00085FFFCCF94
:107FA0009093C60008958091C00087FFFCCF809118
:107FB000C00084FD01C0A8958091C6000895E0E648
:107FC000F0E098E1908380830895EDDF803219F02E
:107FD00088E0F5DFFFCF84E1DECF1F93182FE3DFCA
:107FE0001150E9F7F2DF1F91089580E0E8DFEE27F6
:047FF000FF270994CA
:027FFE00040479
:00000001FF
