:100000000C9472000C949A000C949A000C949A0030
:100010000C949A000C949A000C949A000C94710D14
:100020000C949A000C949A000C949A000C949A00E8
:100030000C949A000C949A000C949A000C949A00D8
:100040000C94270D0C949A000C94F30D0C94CD0D88
:100050000C949A000C949A000C949A000C949A00B8
:100060000C94250E0C949A0005A84CCDB2D44EB930
:100070003836A9020C50B9918688083CA6AAAA2A4B
:10008000BE000000803F0200000000240027002A7C
:100090000000000000250028002B000000000023C5
:1000A00000260029000404040404040404020202DB
:1000B00002020203030303030301020408102040A9
:1000C0008001020408102001020408102000000032
:1000D0000800020100000304070000000000000007
:1000E0000000440F11241FBECFEFD8E0DEBFCDBF0C
:1000F00014E0A0E0B1E0E0E1F1E302C005900D9270
:10010000AA31B107D9F728E0AAE1B4E001C01D92F5
:10011000AC32B207E1F710E0C2E7D0E004C02197AB
:10012000FE010E947718C137D107C9F70E94940FCA
:100130000C9486180C9400008091AE049091AF044A
:10014000891B990B0895833081F028F4813099F050
:100150008230A9F008958730A9F08830C9F0843042
:10016000B1F4809180008F7D03C0809180008F77F3
:1001700080938000089584B58F7784BD089584B5F9
:100180008F7DFBCF8091B0008F778093B000089572
:100190008091B0008F7DF9CFCF93DF93282F30E08F
:1001A000F901E353FF4F8491F901E754FF4FD491D4
:1001B000F901EB55FF4FC491CC23A1F081110E94AE
:1001C000A300EC2FF0E0EE0FFF1FE556FF4FA591C7
:1001D000B491EC91ED2381E090E009F480E0DF91AF
:1001E000CF91089580E090E0FACF1F93CF93DF93F3
:1001F000282F30E0F901E353FF4F8491F901E754D0
:10020000FF4FD491F901EB55FF4FC491CC23A9F0D6
:10021000162F81110E94A300EC2FF0E0EE0FFF1FBC
:10022000EF56FF4FA591B4918FB7F894EC9111114F
:1002300008C0D095DE23DC938FBFDF91CF911F9153
:100240000895DE2BF8CFCF93DF9390E0FC01E754C5
:10025000FF4F24918B559F4FFC0184918823D1F04F
:1002600090E0880F991FFC01E957FF4FA591B491C9
:10027000FC01EF56FF4FC591D49161110EC09FB79D
:10028000F8948C91E22FE0958E238C932881E223C1
:10029000E8839FBFDF91CF9108958FB7F894EC91D9
:1002A000E22BEC938FBFF6CF3FB7F89480919E047A
:1002B00090919F04A091A004B091A10426B5A89BA1
:1002C00005C02F3F19F00196A11DB11D3FBFBA2FE8
:1002D000A92F982F8827BC01CD01620F711D811DA8
:1002E000911D42E0660F771F881F991F4A95D1F72D
:1002F00008958F929F92AF92BF92CF92DF92EF922A
:10030000FF924B015C010E9454016B017C010E9431
:1003100054016C197D098E099F09683E734081055F
:100320009105A8F321E0821A9108A108B10888EE8E
:10033000C80E83E0D81EE11CF11C81149104A104B5
:10034000B10429F7FF90EF90DF90CF90BF90AF906E
:100350009F908F9008952FB7F89460919A047091B0
:100360009B0480919C0490919D042FBF0895089553
:1003700008959091280189130BC0E6E8F0E0E4911C
:100380009FEF90932801E13049F028F0E23061F0CE
:1003900060E00C94F50010926E00FACF90916F001F
:1003A0009D7F90936F00F4CF909170009D7F90930C
:1003B000700091E09093B0009091B100987F9460AC
:1003C0009093B1001092B300E3CFAF92BF92CF925F
:1003D000DF92EF92FF920F931F93CF93DF936C0105
:1003E0007B018B01040F151FEB015E01AE18BF08E6
:1003F000C017D10759F06991D601ED91FC91019098
:10040000F081E02DC6010995892B79F7C501DF91AF
:10041000CF911F910F91FF90EF90DF90CF90BF9001
:10042000AF900895FC01538D448D252F30E0842F2B
:1004300090E0821B930B541710F0CF96089501970C
:100440000895FC01918D828D981761F0A28DAE0FF9
:10045000BF2FB11D5D968C91928D9F5F9F73928F80
:1004600090E008958FEF9FEF0895FC01918D828DAC
:10047000981731F0828DE80FF11D858D90E0089579
:100480008FEF9FEF0895FC01918D228D892F90E0D1
:10049000805C9F4F821B91098F739927089588E68E
:1004A00097E00E94430221E0892B09F420E0822F8B
:1004B000089580E090E0892B29F00E944F0281117D
:1004C0000C9400000895FC01A48DA80FB92FB11D54
:1004D000A35ABF4F2C91848D90E001968F7399277A
:1004E000848FA689B7892C93A089B1898C91837058
:1004F00080648C93938D848D981306C00288F38951
:10050000E02D80818F7D80830895EF92FF920F937D
:100510001F93CF93DF93EC0181E0888F9B8D8C8DAF
:1005200098131AC0E889F989808185FF15C09FB7A3
:10053000F894EE89FF896083E889F9898081837066
:10054000806480839FBF81E090E0DF91CF911F9115
:100550000F91FF90EF900895F62E0B8D10E00F5F36
:100560001F4F0F731127E02E8C8D8E110CC00FB60C
:1005700007FCFACFE889F989808185FFF5CFCE01A4
:100580000E946302F1CFEB8DEC0FFD2FF11DE35ABA
:10059000FF4FF0829FB7F8940B8FEA89FB89808127
:1005A0008062CFCFCF93DF93EC01888D8823B9F0A1
:1005B000AA89BB89E889F9898C9185FD03C080816E
:1005C00086FD0DC00FB607FCF7CF8C9185FFF2CFEB
:1005D000808185FFEDCFCE010E946302E9CFDF91DC
:1005E000CF910895089520915B04260F3327331F80
:1005F00021323105ECF420916207FC0190E080E0AB
:10060000243069F082E00895A0915B042191AC014F
:10061000455C5B4FA40FB52FB11D2C930196861737
:1006200098F380915B04680F60935B0480E0089509
:1006300081E008951092620781E080934107109253
:100640003C0761E082E10E94F50061E083E10E94E5
:10065000F500E9EBF0E080818E7F808380818D7FE3
:10066000808388E48093B80085E48093BC0008957B
:10067000CF93DF9391E090933A048823B9F0C0912F
:10068000B800D091BA008091BC008A7B8093BC00F6
:1006900060E082E10E94F50060E083E10E94F500E5
:1006A0000E941A03D093BA00C093B800DF91CF9193
:1006B0000895CF92DF92EF92FF920F931F93CF9303
:1006C000DF93D82FC62F613208F098C00E945401E2
:1006D0006B017C018091620781116BC081E0809386
:1006E0006207809341079FEF9093400710923F0766
:1006F0009C0F90933E0780933D0780913D07DD0F4F
:10070000D82BD0933D0780913C07813009F078C009
:1007100010923C070E9454016B017C0180913D07BF
:100720008093BB008091640790916507A091660754
:10073000B0916707892B8A2B8B2BA1F00E94540163
:100740000091640710916507209166073091670753
:100750006C197D098E099F090617170728073907A5
:1007600008F448C08091BC0083FDD8CF85EC80930D
:10077000BC000E9454016B017C01809162078130B2
:1007800009F440C080913F078C1710F4C0913F07D7
:10079000ECE1F7E0A2E4B7E080E08C1355C08C2FC9
:1007A000DF91CF911F910F91FF90EF90DF90CF904D
:1007B00008958091640790916507A0916607B091B4
:1007C0006707892B8A2B8B2B09F484CF0E94540155
:1007D00000916407109165072091660730916707C3
:1007E0006C197D098E099F09061717072807390715
:1007F00008F070CF809163070E943803C0E0CFCF2C
:1008000085EEB5CF8091640790916507A09166074A
:10081000B0916707892B8A2B8B2B09F4AECF0E94EE
:10082000540100916407109165072091660730918B
:1008300067076C197D098E099F0906171707280796
:10084000390708F09ACFD6CF91919D938F5FA5CFAE
:100850000895E091AF048091AE04E81730F4F0E021
:10086000EE5BF84F808190E008958FEF9FEF089541
:100870009091AF048091AE042FEF3FEF981748F4AA
:10088000E92FF0E0EE5BF84F208130E09F5F90931E
:10089000AF04C9010895CF92DF92EF92FF920F93B8
:1008A0001F93CF93DF937C01CB018A012091AD048C
:1008B000222389F0EB016B01C40ED51ECC15DD059A
:1008C00069F06991D701ED91FC910190F081E02DE3
:1008D000C7010995F3CF642F0E94F302C801DF918D
:1008E000CF911F910F91FF90EF90DF90CF900895DF
:1008F000CF93DF931F92CDB7DEB769832091AD040C
:100900002223F9F02091AA04203258F021E030E0AF
:10091000FC013383228390E080E00F90DF91CF9140
:1009200008958091AB04E82FF0E0E65EFB4F9981DB
:1009300090838F5F8093AB048093AA0481E090E062
:10094000ECCF61E0CE0101960E94F302F7CFCF9287
:10095000DF92EF92FF920F931F93CF93DF93D0918B
:10096000AA0481E0D13208F09CC0C091AC040E947E
:1009700054016B017C018091620781116CC082E09F
:100980008093620781E0809341078FEF8093400757
:1009900010923F07D0933E07AAE1B4E0ECE1F7E004
:1009A00080E0D8138DC010923D0780913D07CC0F99
:1009B000C82BC0933D0780913C07813009F084C06B
:1009C00010923C070E9454016B017C0180913D070D
:1009D0008093BB008091640790916507A0916607A2
:1009E000B0916707892B8A2B8B2BA1F00E945401B1
:1009F00000916407109165072091660730916707A1
:100A00006C197D098E099F090617170728073907F2
:100A100008F442C08091BC0083FDD8CF85EC809360
:100A2000BC000E9454016B017C01809162078230FE
:100A300009F44CC0809140078F3F09F469C0809150
:100A40004007803209F466C080914007803309F482
:100A500063C084E026C08091640790916507A091EF
:100A60006607B0916707892B8A2B8B2B09F483CFFC
:100A70000E94540100916407109165072091660758
:100A8000309167076C197D098E099F0906171707B2
:100A90002807390708F06FCF809163070E94380359
:100AA00085E01092AB041092AA041092AD04DF917D
:100AB000CF911F910F91FF90EF90DF90CF9008950D
:100AC0009D9191938F5F6DCF85EEA9CF8091640743
:100AD00090916507A0916607B0916707892B8A2BD3
:100AE0008B2B09F4A2CF0E9454010091640710914E
:100AF000650720916607309167076C197D098E099B
:100B00009F09061717072807390708F08ECFC4CFAB
:100B100080E0C7CF82E0C5CF83E0C3CF1F93CF93E0
:100B2000DF93162FC1E1D8E0AB85BC859C8121E025
:100B30002093AD049093AC041092AB041092AA04DD
:100B4000ED91FC9111970190F081E02D682FCD017E
:100B500009958B859C85DC01ED91FC910190F081DC
:100B6000E02D612F09958B859C85DF91CF911F9199
:100B70000C94A7040F931F93CF93DF93EC018B0189
:100B80008B859C8521E02093AD042EE32093AC045B
:100B90001092AB041092AA04DC01ED91FC9101903B
:100BA000F081E02DDB016C9109958B859C85DC0142
:100BB000ED91FC910190F081E02DD80111966C919E
:100BC00009958B859C85DF91CF911F910F910C9496
:100BD000A704CF93DF9300D0CDB7DEB790E8998319
:100BE0008A83BE016F5F7F4F81E198E00E94BA0562
:100BF0000F900F90DF91CF910895CF93DF9300D0A6
:100C0000CDB7DEB720E429836A83BE016F5F7F4FD3
:100C10000E94BA0581E090E00F900F90DF91CF9194
:100C2000089590E080E0089521E02093AD0428E548
:100C30002093AC041092AB041092AA0442E050E05E
:100C4000BC0185E098E00E944B0485E098E00E949A
:100C5000A70490E080E00895AF92BF92CF92DF9218
:100C6000EF92FF920F931F93CF93DF93CDB7DEB731
:100C7000D4500FB6F894DEBF0FBECDBFEDB6FEB6B2
:100C80008C01000F111F080F191F8DB79EB7801B15
:100C9000910B0FB6F8949EBF0FBE8DBF01965C01FD
:100CA000602F013208F060E288E50E945903C82EE7
:100CB0001092AF048093AE04D12C8091AF04C8167B
:100CC00069F085E098E00E94380491E09D0DF501FF
:100CD000ED0DF11D80839017110670F1CE01019684
:100CE0006C01A801B5010E947D180FB6F894FEBEF4
:100CF0000FBEEDBEA0EBB4E0F60121E3CF018C19ED
:100D00009D0980179107D0F090E080E00FB6F8942D
:100D1000FEBE0FBEEDBEDC5F0FB6F894DEBF0FBEA9
:100D2000CDBFDF91CF911F910F91FF90EF90DF909A
:100D3000CF90BF90AF900895D92EBFCF5281408100
:100D4000842F809598E087FF03C0880F822701C019
:100D5000880F9150C1F73181832798E087FF03C046
:100D6000880F822701C0880F9150C1F7129658133F
:100D700008C01C964C931C971D963C931D97339668
:100D8000BDCF8FEF9FEFC2CF4F925F926F927F9256
:100D90008F929F92AF92BF92CF92DF92EF92FF928B
:100DA0000F931F93CF93DF93CDB7DEB7DC014DB622
:100DB0005EB6E090BC04F090BD04F70162817381DF
:100DC00010E000E090E0292F30E026173707E8F028
:100DD0002617370759F5EE24EA94FE2CC7010FB603
:100DE000F8945EBE0FBE4DBEDF91CF911F910F9163
:100DF000FF90EF90DF90CF90BF90AF909F908F903B
:100E00007F906F905F904F900895220F331FF701EE
:100E100040815181240F351FF90100811181F801B2
:100E200080858A171B0611F09F5FCDCF0115110534
:100E300091F2D801CD90DD90ED90FC90B5E0CB0E15
:100E4000D11CE11CF11CC80109960E9414060196F0
:100E500011F2C701B60128EE33E040E050E00E94F5
:100E6000E517CA01B9016F5F7F4F8F4F9F4F0E94F7
:100E70007901D80116968D919C91F12CE12C009767
:100E800009F4ACCF21E030E03093B1042093B004FA
:100E90000E942C067C01892B09F09DCF6DB67EB691
:100EA000F801468157816A01F1E0CF1AD1084A0161
:100EB000880C991C8DB79EB7881999090FB6F894BC
:100EC0009EBF0FBE8DBF0196EEEBF4E0DC0130E07B
:100ED00020E04217530791F450EBA52E54E0B52EB5
:100EE000880E991ED7FE11C00FB6F8947EBE0FBEB5
:100EF0006DBE1092B1041092B00470CF61917191E7
:100F00006D937D932F5F3F4FE4CFD4019E918E91DF
:100F10004D01982789279827F8012681378121508C
:100F200030482C193D09220F331F44815581240F6D
:100F3000351FD901ED91FC910190F081E02D3097A2
:100F400059F00995F50197878687B1E0CB1AD1084A
:100F5000E2E0AE0EB11CC6CFD5011F969C938E93D6
:100F60001E97F3CFEF92FF920F931F93CF93DF93D0
:100F700061E0809124080E94F5006AEF70E080E053
:100F800090E00E9479010E94AB0100912708109126
:100F900028082091290830912A08601771078207D4
:100FA000930740F4109227081092280810922908FD
:100FB00010922A0820912B08211119C000912708AE
:100FC000109128082091290830912A08601B710B84
:100FD000820B930B603D77408105910540F481E0E1
:100FE000DF91CF911F910F91FF90EF900895109294
:100FF0002B080E94AB016093270870932808809308
:10100000290890932A081092220810922108109221
:10101000200810921F0810921E0861E08091240899
:101020000E94230160E0809124080E94F50064E1A1
:1010300070E080E090E00E94790161E080912408F6
:101040000E94F5008BE490E00197F1F760E0809159
:1010500024080E94230110E081E0C0E0D0E0E82EE7
:10106000F12C809124080E94CC008E159F0519F464
:10107000DF5FDF3FB1F7809124080E94CC00DF3FA3
:10108000C1F0C43098F0C0FD11C0E12FE695E6959F
:10109000E695F0E0E25EF74F9081990F9083209102
:1010A00026082D1710F4916090831F5FCF5FC53520
:1010B000A9F61832B8F04091220820911E088091BC
:1010C0001F08280F3327331F80912008280F311D58
:1010D00080912108820F932F911D99274817190697
:1010E00009F47DCF80E07CCFEF92FF921F93CF93E6
:1010F000DF937C0161E088E30E945903182F10926E
:10110000AF048093AE04CAE0D0E0113049F02197DB
:10111000A9F061E070E080E090E00E947901F5CFF5
:1011200085E098E00E943804F701808390E080E039
:10113000DF91CF911F91FF90EF9008958FEF9FEF78
:10114000F7CFFB0101900020E9F73197AF01461B73
:10115000570BDC01ED91FC910280F381E02D0994A5
:101160008F929F92AF92BF920F931F93CF93DF9373
:10117000CDB7DEB7A1970FB6F894DEBF0FBECDBFD7
:1011800019A2423008F44AE08E010F5D1F4F842EF1
:10119000912CB12CA12CA50194010E94E517E62FFA
:1011A000B901CA01EA3004F5E05DD801EE938D0182
:1011B000232B242B252B79F790E080E0109729F042
:1011C000BD0181E198E00E94A108A1960FB6F894B4
:1011D000DEBF0FBECDBFDF91CF911F910F91BF90AA
:1011E000AF909F908F900895E95CDFCFCF92DF9210
:1011F000EF92FF92CF93DF9397FF1BC06B017C01AF
:101200006DE281E198E00E94FD05EC0166277727F9
:10121000CB016C197D098E099F094AE00E94B00834
:101220008C0F9D1FDF91CF91FF90EF90DF90CF90BB
:1012300008954AE0DF91CF91FF90EF90DF90CF903B
:101240000C94B0088F929F92AF92BF92CF92DF9290
:10125000EF92FF9268E473E081E198E00E94A108B8
:10126000C090A604D090A704E090A804F090A90430
:10127000A7019601C701B6010E9444176FE473E00D
:1012800081111AC046015701E894B7F82FEF3FEFDC
:101290004FE75FE7C501B4010E94441781111EC0EA
:1012A0002FEF3FEF4FE75FE7C501B4010E947215D2
:1012B0001816A4F463E573E081E198E00E94A108A8
:1012C0006BE573E081E198E0FF90EF90DF90CF90C5
:1012D000BF90AF909F908F900C94A1082FEF3FEF9D
:1012E0004FE75FE4C701B6010E94CA1618161CF446
:1012F00067E573E0E1CF2FEF3FEF4FE75FECC7010A
:10130000B6010E94721587FDF3CF20E030E0A901FD
:10131000C701B6010E94721587FF09C06DE281E125
:1013200098E00E94FD05F7FAF094F7F8F0942AE0AF
:1013300037ED43EA5BE3C701B6010E9406154B0196
:101340005C010E94E9156B017C010E9418169B014B
:10135000AC01C501B4010E9405154B015C014AE0D6
:10136000C701B6010E94B0086EE281E198E00E94D8
:10137000FD0520E030E040E251E4C501B4010E94E7
:10138000CF164B015C010E94E9156B01F12CE12C99
:101390004AE0C701B6010E94B008C701B6010E9429
:1013A00018169B01AC01C501B4010E94051520E08F
:1013B00030E040E251E40E94CF160E94E91590E02F
:1013C00080E04AE00E94B0087BCF0F931F93CF9339
:1013D000DF93EC010E94A1088C016DE573E0CE0162
:1013E0000E94A108800F911FDF91CF911F910F9153
:1013F0000895809125088A30F9F481E08093AD0446
:1014000088E38093AC041092AB041092AA0461EEBE
:1014100085E098E00E94780468E085E098E00E940A
:10142000780460E085E098E00E94780485E098E028
:101430000E94A70490E0089560E673E088E697E0D4
:101440000E94E50990E080E00895CF93DF931F921A
:10145000CDB7DEB71982809125088A30A9F4CE0174
:1014600001960E947408892B31F065E873E088E6E4
:1014700097E00E94E509898183FB882780F990E045
:101480000F90DF91CF91089560E673E088E697E0D2
:101490000E94E50980E0F3CF4F925F926F927F92B6
:1014A0008F929F92AF92BF92CF92DF92EF92FF9274
:1014B0000F931F93CF93DF93CDB7DEB729970FB666
:1014C000F894DEBF0FBECDBF8C01809125088A3015
:1014D00009F084C1C12CD12C760199249394A8E3FE
:1014E0008A2E0E94250A892B09F444C0E6E06E2E5C
:1014F000CE0101965C0155245394F8E34F2E1986D2
:10150000F501262D11922A95E9F7809125088A3058
:1015100009F01BC15092AD044092AC041092AB0490
:101520001092AA046CEA85E098E00E94780463E3D4
:1015300085E098E00E94780460E085E098E00E94F1
:10154000780485E098E00E94A704882309F4B6C0D7
:101550008FEFC81AD80AE80AF80A62E370E080E060
:1015600090E00E94790196E0C916D104E104F104EB
:1015700031F684C0809125088A3009F098C064EF64
:1015800071E080E090E00E947901809125088A3026
:1015900089F49092AD048092AC041092AB04109246
:1015A000AA046AEB85E098E00E94780485E098E060
:1015B0000E94A7046CE271E080E090E00E94790153
:1015C0000E94F909892B31F06AE973E088E697E017
:1015D0000E94E50964EF71E080E090E00E947901EB
:1015E00076E0A72EB12C0E94250A892BA9F56AEB7B
:1015F00073E088E697E00E94E509809125088A302B
:1016000089F49092AD048092AC041092AB041092D5
:10161000AA046AEB85E098E00E94780485E098E0EF
:101620000E94A70464EF71E080E090E00E947901DD
:101630000E94F909892B31F06AE973E088E697E0A6
:101640000E94E50964EF71E080E090E00E9479017A
:1016500091E0A91AB10839F66EE170E080E090E0FF
:101660000E947901EFEFCE1ADE0AEE0AFE0AF4E0DC
:10167000CF16D104E104F10409F033CF8FEF9FEFCF
:1016800029960FB6F894DEBF0FBECDBFDF91CF9184
:101690001F910F91FF90EF90DF90CF90BF90AF9090
:1016A0009F908F907F906F905F904F90089560E62D
:1016B00073E088E697E00E94E509CECF6BE470E026
:1016C00080E090E00E947901898587FF13C06CEC6F
:1016D00073E088E697E00E94E50968EC70E080E03E
:1016E00090E00E947901CE0109960E947408892B2E
:1016F00059F32ECF66E088E30E945903782E1092AA
:10170000AF048093AE046AE0862E912CE6E07E1250
:1017100010C07E01F7E0EF0EF11CAE14BF0409F417
:1017200039C185E098E00E943804F50181935F019A
:10173000F4CFF1E08F1A910809F40ACF61E070E06C
:1017400080E090E00E947901E1CF60E673E088E6F6
:1017500097E00E94E509C12CD12C760160E070E091
:10176000CB010E94181620E030E048EC52E40E94C1
:10177000CF1620E030E040E85AE30E94CF1620E088
:1017800030E040E85AE30E94CF16F801608371838D
:1017900082839383C701B6010E94181620E030E0CF
:1017A00048E453E40E94CF1620E030E040E85AE3DA
:1017B0000E94CF1620E030E040E85AE30E94CF16A6
:1017C00020E030E048E452E40E940515F80164830B
:1017D00075838683978390E080E052CF0E94B207A2
:1017E000882349F0809125088B3051F020F08551F5
:1017F000823008F43EC060E070E080EC9FE707C0F4
:1018000060911E0870E090E080E00E941816F801D8
:101810006083718382839383809125088A3009F0E5
:1018200049C0CE0101960E944C0ACD80DE80EF8037
:10183000F884F801C482D582E682F78260817181E2
:10184000828193819B01AC010E944417811116CFC4
:1018500001E010E0A7019601C701B6010E944417FC
:10186000811102C010E000E088279927801B910BAE
:1018700007CF60911E0870E090E080E00E9418168B
:1018800020E030E040E853E40E94CF166B017C0179
:1018900060911F0870E090E080E00E941A16A70196
:1018A00096010E94061520E030E040E251E40E94DB
:1018B0007715ADCF0E94B207882341F080912508AB
:1018C0008B3059F018F085518230E8F1C12CD12CC1
:1018D00050ECE52E5FE7F52EACCF6091200870E06C
:1018E00090E080E00E9418166B017C01A090210816
:1018F000BA2CE894B7F86B2D70E090E080E00E947D
:101900001A16F9E020E030E040E251E4FB1538F42B
:1019100023E62B1598F020E030E048EC52E40E94DA
:101920007715A70196010E9406156B017C01A7FEA1
:1019300080CFF7FAF094F7F8F0947BCF20E030E016
:101940004AE754E4ECCFB09020086B2D6F7770E03D
:1019500090E080E00E941A1620E030E040E853E476
:101960000E94CF166B017C016091210870E090E02D
:1019700080E00E941A16A70196010E94061520E039
:1019800030E040E251E40E9477156B017C01B7FE24
:1019900050CFCFCF6A817B8176276727762790E06B
:1019A00080E0982F872F762F66272C81622B34E0DA
:1019B00096958795779567953A95D1F7CC80DD8098
:1019C000DC24CD24DC24F12CE12CFE2CED2CDC2CB1
:1019D000CC242E81C22AFFE0EF22FF24C2CE85ED67
:1019E0008093BC008091640790916507A091660781
:1019F000B09167070796A11DB11D23E0B695A79585
:101A0000979587952A95D1F72091BC0024FD03C0B6
:101A100010926207089540916407509165076091A4
:101A2000660770916707452B462B472B69F3009794
:101A3000A105B10541F02AE22A95F1F700C001970E
:101A4000A109B109E1CF809163070C9438031F927B
:101A50000F920FB60F9211242F933F938F939F9362
:101A6000AF93BF9380919A0490919B04A0919C04A2
:101A7000B0919D043091990423E0230F2D3758F540
:101A80000196A11DB11D2093990480939A0490930F
:101A90009B04A0939C04B0939D0480919E0490911C
:101AA0009F04A091A004B091A1040196A11DB11DB5
:101AB00080939E0490939F04A093A004B093A104EC
:101AC000BF91AF919F918F913F912F910F900FBE3A
:101AD0000F901F90189526E8230F0296A11DB11DA7
:101AE000D2CF1F920F920FB60F9211242F933F93D4
:101AF0004F935F936F937F938F939F93AF93BF9316
:101B0000EF93FF938091870490918804A0918904BA
:101B1000B0918A04892B8A2B8B2BD1F1909182046E
:101B2000E0918304F09184048081892780838091EF
:101B3000870490918804A0918904B0918A041816B2
:101B400019061A061B069CF480918704909188045C
:101B5000A0918904B0918A040197A109B1098093E9
:101B6000870490938804A0938904B0938A04FF911A
:101B7000EF91BF91AF919F918F917F916F915F9105
:101B80004F913F912F910F900FBE0F901F9018957E
:101B9000809128010E94B901EACF1F920F920FB6DF
:101BA0000F9211242F933F934F935F936F937F93E3
:101BB0008F939F93AF93BF93EF93FF9388E697E044
:101BC0000E946302FF91EF91BF91AF919F918F911E
:101BD0007F916F915F914F913F912F910F900FBE29
:101BE0000F901F9018951F920F920FB60F9211240D
:101BF0002F938F939F93EF93FF93E0917807F0914A
:101C000079078081E0917E07F0917F0782FD1BC0FC
:101C10009081809181078F5F8F7320918207821757
:101C200041F0E0918107F0E0E859F84F958F8093FB
:101C30008107FF91EF919F918F912F910F900FBE90
:101C40000F901F9018958081F4CF1F920F920FB6BE
:101C50000F9211242F933F934F935F936F937F9332
:101C60008F939F93AF93BF93EF93FF938091B900AE
:101C7000887F803609F44AC0F0F5883209F4A7C09D
:101C800018F5803109F49BC0B8F4882309F4F9C031
:101C9000883009F494C0FF91EF91BF91AF919F916B
:101CA0008F917F916F915F914F913F912F910F9005
:101CB0000FBE0F901F901895883109F488C08032AC
:101CC00051F78093400714C0803409F49DC040F45C
:101CD0008033B9F38833F9F68093400785ECB0C0C0
:101CE000803509F485C0883509F496C0883499F6A2
:101CF0000E94EF0CD0CF883909F48CC038F58837B2
:101D000029F050F4883611F0803729F683E080936B
:101D1000620710927D0457C0883809F47BC080396F
:101D200019F0803809F0B7CF80917D04803208F037
:101D300071C0E0917D0481E08E0F80937D048091DD
:101D4000BB00F0E0E35AFB4F80833DC0803B39F09D
:101D5000E0F4803A09F479C0883A09F09CCF84E035
:101D60008093620710925C0410925B04E0917E0401
:101D7000F0917F04099580915B0481110FC081E08F
:101D800080935B0410923B0409C0803C09F4A6CF09
:101D9000883C09F4A3CF883B09F07DCFE0915C0437
:101DA00081E08E0F80935C04F0E0E55CFB4F808166
:101DB0008093BB0090915C0480915B0429C080916A
:101DC0003D078093BB0085EC8093BC0064CF90916D
:101DD0003F0780913E07981758F5E0913F0781E053
:101DE0008E0F80933F07F0E0E45EF84F8081E9CFEB
:101DF000E0913F0781E08E0F80933F078091BB0009
:101E0000F0E0E45EF84F808390913F0780913E07B9
:101E10009817C8F285E8D8CFE0913F0781E08E0F90
:101E200080933F078091BB00F0E0E45EF84F808331
:101E30008091410781115CCF81E080933C0784EA67
:101E40008093BC001092620726CF85EC8093BC0083
:101E50001092620780917D04803230F4E0917D041D
:101E6000F0E0E35AFB4F108260917D0470E0E09156
:101E70008004F09181048DE594E0099510927D0431
:101E80000ACF1092400734CFE8E6F7E013821282BF
:101E900088EE93E0A0E0B0E084839583A683B783C7
:101EA0002CE133E03183208325EC30E03587248733
:101EB00024EC30E03787268720EC30E0318B208B14
:101EC00021EC30E0338B228B22EC30E0358B248BFD
:101ED00026EC30E0378B268B118E128E138E148EEB
:101EE000E5E0F8E01382128284839583A683B783AA
:101EF0008EE293E091838083EEE1F8E016828BE03E
:101F0000878386E0808781E08587E1E1F8E01382BE
:101F1000128280E493E09183808315821682178277
:101F20001086118612860895CF93DF93CDB7DEB762
:101F30002E970FB6F894DEBF0FBECDBF789484B550
:101F4000826084BD84B5816084BD85B5826085BDB5
:101F500085B5816085BD80916E00816080936E0043
:101F60001092810080918100826080938100809135
:101F700081008160809381008091800081608093E6
:101F800080008091B10084608093B1008091B000A6
:101F900081608093B00080917A00846080937A00A1
:101FA00080917A00826080937A0080917A008160CB
:101FB00080937A0080917A00806880937A001092F2
:101FC000C100E0917807F091790712E01083E09169
:101FD0007407F09175071082E0917607F09177070A
:101FE0008FEC808310928007E0917C07F0917D0751
:101FF00086E08083E0917A07F0917B0780818061A1
:102000008083E0917A07F0917B07808188608083EC
:10201000E0917A07F0917B07808180688083E0916E
:102020007A07F0917B0780818F7D808369ED73E073
:1020300088E697E00E94E50985E098E090931D0806
:1020400080931C081092AF041092AE041092AB045F
:102050001092AA040E941A0387EB91E090937F04E8
:1020600080937E0488EB91E09093810480938004B8
:1020700080911608982F98609093160810931A086C
:1020800010921B08EBE3FDE03197F1F788620E94A4
:10209000E9058BE496E40197F1F7809116088062D8
:1020A0000E94E90583E592E00197F1F78091160817
:1020B00080620E94E9058091160880620E94E9050D
:1020C00084E0809317088CE00E94E90581E00E947B
:1020D000E9058BE39FE10197F1F71093180886E07B
:1020E0000E94E90580911C0890911D0821E0209331
:1020F000AD0410E31093AC041092AB041092AA0448
:102100000E94A704811145C01093150867E00E9442
:102110008E058BE193E00197F1F765E184E00E9481
:102120008E05809115086FEF803309F040C086E07E
:102130000E948E056FEF87E00E948E056FEF88E0AA
:102140000E948E051092B1041092B0041092AF0458
:102150001092AE041092AB041092AA040E941A03CB
:1021600087EB91E090937F0480937E0488EB91E06D
:10217000909381048093800486E193E00E9414068A
:102180000196F9F46FED73E088E697E00E94E509A7
:10219000FFCF82E68093150860E080E00E948E0504
:1021A0006FEF88E00E948E0560E281E0B8CF84E0A6
:1021B0000E948E056FEF83E00E948E056FEF82E034
:1021C000BFCF61E070E080E090E00E94790182E0A2
:1021D00090E00E942C060196A9F26091BE047091D5
:1021E000BF048091C0049091C1040E9426186B879F
:1021F0007C878D879E87A091BE04AB83A090BF048F
:10220000B090C0041091C104B091C204A091C30465
:10221000F091C404E091C5042B813A2D4B2D512F30
:102220006B2F7A2F8F2F9E2F00E20E9448181901E2
:10223000D22EC32CF12CE12C7601DD24CC242B8171
:102240003A2D4B2D512F6B2F7A2F8F2F9E2F00E37E
:102250000E9448182901522645245424712C612CCF
:102260004C285D286E287F28530142014B855C85F0
:102270006D857E859A01AB0160E070E0CB012B8318
:102280003C834D835E836F83788789879A8760E07C
:1022900070E080E090E000E20E942D1828293929A2
:1022A0004A295B2900E10E9448182093B204309328
:1022B000B3044093B4045093B5046093B604709390
:1022C000B7048093B8049093B90484E193E00E942A
:1022D0001406019609F456CF62E070E080E090E0C9
:1022E0000E94790181E090E00E942C06019609F499
:1022F00049CF4091BE045091BF045427452754272D
:102300005093BB044093BA04C0902201D0902301A3
:10231000D6011696ED91FC9130E020E02E173F0794
:10232000F9F0D60114968D919C91B901660F771F33
:10233000860F971FDC016D917C91CA018627972734
:10234000607E7727672B49F4917F892B19F430E061
:1023500020E00CC02F5F3F4FE1CF807E917FF5CF13
:10236000FCE0CF2EF3E0DF2E2FEF3FEFA091240112
:10237000B091250116960D911C91179770E060E0C1
:102380000617170701F114968D919C9115977B0103
:10239000EE0CFF1C8E0D9F1DFC01E080F180CA0138
:1023A0008E259F25F0EEEF22FF24EF2849F4917F40
:1023B000892B19F430E020E007C06F5F7F4FE0CF3A
:1023C000807E917FF5CFD601B093BD04A093BC046D
:1023D0002F3F3F4F09F4D6CE90E080E00E94C40624
:1023E000892B09F0CFCE8AE090E00E94C4060196C6
:1023F00031F46AEE73E081E198E00E94E50990E033
:1024000080E00E94C40661E083E00E94230160E056
:1024100082E00E94230188248A94982C540101E0D0
:102420005CEB252E50E0352E15E081E090E00E9417
:10243000C406019609F457C18091BE049091BF046F
:1024400090939404809393048091C0049091C1046C
:102450009093960480939504C0902601D090270114
:102460000D2C000CEE08FF080E94AB0128E833E1B8
:1024700040E050E00E94E517C216D306E406F506D8
:1024800081F00E94AB0128E833E140E050E00E9477
:10249000E517309327012093260182EA94E00E94F9
:1024A0004C0A82E00E94CC00019751F480912901EE
:1024B00080278093290182E00E94CC000197D9F304
:1024C00080912901882309F42FC20E94AB010E9448
:1024D000181620E030E048E453E40E9477150E948B
:1024E0003C1720E030E04AEF53E40E94CF1620E092
:1024F00030E84BE354E40E9406150E94E9156B0195
:1025000080912801833009F0F8C0E6E8F0E01491EA
:1025100017FDA2C061E083E00E942301112319F09E
:10252000123009F0B4C1F12CE12C60E072E18AE7CD
:1025300090E0A70196010E94071829013A01DA01EB
:10254000C9010197A109B1098F3F9105A105B10505
:1025500009F00CF483C160E472E48FE090E0A7011D
:1025600096010E9407182150310941095109123082
:1025700009F035C182E02F3F31054105510509F0D1
:102580000CF45BC060E970ED83E090E0A701960178
:102590000E940718215031094109510983E02F3F5A
:1025A00031054105510509F00CF447C068E478EEA7
:1025B00081E090E0A70196010E940718215031099F
:1025C0004109510984E02F3F310541055105A9F129
:1025D000A4F164E274EF80E090E0A70196010E940C
:1025E0000718215031094109510985E02F3F310574
:1025F0004105510511F108F162E17AE780E090E0D0
:10260000A70196010E94071821503109410951097B
:1026100086E02F3F31054105510579F070F08AE0E1
:1026200075946794579447948A95D1F7A3019201C2
:10263000215031094109510987E09091B100987FFB
:10264000892B8093B100113009F44CC1123009F488
:102650005BC1112309F40AC180E480937C0080915E
:102660007A00806480937A0080917A0086FDFCCFA6
:1026700080917800909179006CE271E00E94D1170E
:10268000709398046093970481E00E94E9058BE3BE
:102690009FE10197F1F780E889838A83BE016F5F2C
:1026A0007F4F81E198E00E94BA0580919704909154
:1026B00098048130910509F469C108F439C1823068
:1026C000910509F48CC1039709F49CC180E090E066
:1026D000892B09F4A9CE0E944F02882309F49FCECA
:1026E0000E9400009CCE115009F09FCE60E074E083
:1026F00088E697E00E94E509AFCE8F3F09F0ACCFA6
:1027000083E080932801E6E8F0E014911F3F09F48C
:10271000A3CF113021F150F0123009F43EC017FD63
:102720009BCF61E083E00E942301FACE14BC15BC6C
:1027300084B5826084BD85B5816085BDE8EAF0E03E
:102740008491E82FF0E0EE0FFF1FEF56FF4F8591C9
:102750009491F10184918093860410E0DBCE109275
:1027600080001092810080918100886080938100B8
:1027700080918100816080938100E8EAF0E084919B
:10278000E82FF0E0EE0FFF1FEF56FF4F8591949179
:10279000F101849180938504BDCE1092B000109217
:1027A000B1008091B00082608093B0008091B10050
:1027B00081608093B100E8EAF0E08491E82FF0E0D6
:1027C000EE0FFF1FEF56FF4F859194919093840475
:1027D00080938304F1018491809382049BCE2F3FE8
:1027E00031054105510509F00CF44FC068E478EE5D
:1027F00081E090E0A70196010E940718215031095D
:102800004109510984E01111F1CE83E02F3F3105D8
:102810004105510539F134F162E17AE780E090E059
:10282000A70196010E940718215031094109510959
:1028300084E02F3F310541055105A1F098F09AE061
:1028400075946794579447949A95D1F7A301920190
:10285000215031094109510985E004C09C0181E002
:102860001111EBCE95B5987F892B85BD27BD809240
:102870008F0490929004A0929104B092920480915F
:102880006E00826080936E00E7CE82E0E9CFF12C8B
:10289000E12C60E072E18AE790E0A70196010E94D6
:1028A0000718215031094109510991E021153105DD
:1028B000F1E04F0751056CF068E478EE81E090E0BC
:1028C000A70196010E9407182150310941095109B9
:1028D00093E0113009F0B7CE80918100887F892B79
:1028E00080938100309389002093880080928B042C
:1028F00090928C04A0928D04B0928E0480916F000F
:10290000826080936F00A8CE2093B30080928704EA
:1029100090928804A0928904B0928A0480917000F9
:1029200082608093700098CE83E00E94B90194CEBB
:1029300064E074E081E198E00E94A1086091950450
:1029400070919604072E000C880B990B0E94F608D4
:1029500069E074E081E198E00E94A1086BE074E016
:1029600081E198E00E94A108609193047091940421
:10297000072E000C880B990B0E94F60869E074E0A2
:1029800081E198E00E94A1080E94220964E074E0BD
:1029900081E198E00E94A108C0909504D09096042F
:1029A0000D2C000CEE08FF084AE0C701B601F7FE47
:1029B0000DC06DE281E198E00E94FD056627772752
:1029C000CB016C197D098E099F094AE00E94B0086D
:1029D00062E174E081E198E00E94A10877CE6BE0AB
:1029E00074E081E198E00E94A108609193047091E5
:1029F0009404072E000C880B990B0E94F60866E1E0
:102A000074E0E8CF0E94220961CE5058BB27AA2764
:102A10000E941D150C9490160E94821638F00E9498
:102A2000891620F039F49F3F19F426F40C947F1690
:102A30000EF4E095E7FB0C947916E92F0E94A1169D
:102A400058F3BA17620773078407950720F079F4E3
:102A5000A6F50C94C3160EF4E0950B2EBA2FA02DFC
:102A60000B01B90190010C01CA01A0011124FF273B
:102A7000591B99F0593F50F4503E68F11A16F04036
:102A8000A22F232F342F4427585FF3CF4695379535
:102A90002795A795F0405395C9F77EF41F16BA0BFA
:102AA000620B730B840BBAF09150A1F0FF0FBB1FA8
:102AB000661F771F881FC2F70EC0BA0F621F731FF1
:102AC000841F48F4879577956795B795F7959E3F4E
:102AD00008F0B0CF9395880F08F09927EE0F9795DF
:102AE000879508950E94551608F481E008950E9484
:102AF0008B150C9490160E94891658F00E9482162D
:102B000040F029F45F3F29F00C94791651110C9490
:102B1000C4160C947F160E94A11668F39923B1F392
:102B2000552391F3951B550BBB27AA2762177307F3
:102B3000840738F09F5F5F4F220F331F441FAA1F87
:102B4000A9F335D00E2E3AF0E0E832D09150504043
:102B5000E695001CCAF72BD0FE2F29D0660F771FF1
:102B6000881FBB1F261737074807AB07B0E809F0D7
:102B7000BB0B802DBF01FF2793585F4F3AF09E3F5C
:102B8000510578F00C9479160C94C4165F3FE4F369
:102B9000983ED4F3869577956795B795F7959F5F9F
:102BA000C9F7880F911D9695879597F90895E1E0EB
:102BB000660F771F881FBB1F621773078407BA074A
:102BC00020F0621B730B840BBA0BEE1F88F7E095A5
:102BD00008950E94A91688F09F5798F0B92F992759
:102BE000B751B0F0E1F0660F771F881F991F1AF0F8
:102BF000BA95C9F714C0B13091F00E94C316B1E084
:102C000008950C94C316672F782F8827B85F39F082
:102C1000B93FCCF3869577956795B395D9F73EF490
:102C200090958095709561957F4F8F4F9F4F089538
:102C3000E89409C097FB3EF4909580957095619556
:102C40007F4F8F4F9F4F9923A9F0F92F96E9BB270C
:102C50009395F695879577956795B795F111F8CF88
:102C6000FAF4BB0F11F460FF1BC06F5F7F4F8F4FF3
:102C70009F4F16C0882311F096E911C0772321F0E9
:102C80009EE8872F762F05C0662371F096E8862F81
:102C900070E060E02AF09A95660F771F881FDAF7D8
:102CA000880F9695879597F90895990F0008550F05
:102CB000AA0BE0E8FEEF16161706E807F907C0F0C2
:102CC00012161306E407F50798F0621B730B840BCA
:102CD000950B39F40A2661F0232B242B252B21F4A4
:102CE00008950A2609F4A140A6958FEF811D811D44
:102CF000089597F99F6780E870E060E008959FEF7E
:102D000080EC089500240A94161617061806090682
:102D1000089500240A941216130614060506089551
:102D2000092E0394000C11F4882352F0BB0F40F4D9
:102D3000BF2B11F460FF04C06F5F7F4F8F4F9F4F19
:102D4000089557FD9058440F551F59F05F3F71F09B
:102D50004795880F97FB991F61F09F3F79F0879502
:102D60000895121613061406551FF2CF4695F1DF8B
:102D700008C0161617061806991FF1CF869571051B
:102D8000610508940895E894BB2766277727CB014F
:102D900097F908950E94551608F48FEF08950E9440
:102DA000E2160C9490160E94821638F00E94891642
:102DB00020F0952311F00C9479160C947F161124B1
:102DC0000C94C4160E94A11670F3959FC1F3950F41
:102DD00050E0551F629FF001729FBB27F00DB11D9F
:102DE000639FAA27F00DB11DAA1F649F6627B00D2F
:102DF000A11D661F829F2227B00DA11D621F739F18
:102E0000B00DA11D621F839FA00D611D221F749F25
:102E10003327A00D611D231F849F600D211D822F6C
:102E2000762F6A2F11249F5750409AF0F1F0882393
:102E30004AF0EE0FFF1FBB1F661F771F881F9150C0
:102E40005040A9F79E3F510580F00C9479160C94E0
:102E5000C4165F3FE4F3983ED4F386957795679563
:102E6000B795F795E7959F5FC1F7FE2B880F911DEA
:102E70009695879597F908959F930E944B170F9009
:102E800007FCEE5F0C9474170E945516880B990B83
:102E900008950C947F160E94A916D8F3E894E0E0F8
:102EA000BB279F57F0F02AED3FE049EC06C0EE0F3C
:102EB000BB0F661F771F881F28F0B23A620773079F
:102EC000840728F0B25A620B730B840BE3959A9532
:102ED00072F7803830F49A95BB0F661F771F881FF2
:102EE000D2F790480C948A17EF93E0FF07C0A2EA4C
:102EF0002AED3FE049EC5FEB0E941D150E94901601
:102F00000F90039401FC9058E8E6F0E00C949617BB
:102F10009F3F31F0915020F4879577956795B7954D
:102F2000880F911D9695879597F908959F938F9394
:102F30007F936F93FF93EF939B01AC010E94CF1699
:102F4000EF91FF910E94AA172F913F914F915F91AE
:102F50000C94CF16DF93CF931F930F93FF92EF92B2
:102F6000DF927B018C01689406C0DA2EEF010E948B
:102F7000E216FE01E894A591259135914591559170
:102F8000A6F3EF010E941D15FE019701A801DA9436
:102F900069F7DF90EF90FF900F911F91CF91DF9134
:102FA000089597FB072E16F4009407D077FD09D0FB
:102FB0000E94631807FC05D03EF4909581959F4FC1
:102FC0000895709561957F4F0895A1E21A2EAA1B6E
:102FD000BB1BFD010DC0AA1FBB1FEE1FFF1FA217C9
:102FE000B307E407F50720F0A21BB30BE40BF50BC6
:102FF000661F771F881F991F1A9469F7609570954F
:10300000809590959B01AC01BD01CF010895052EDF
:1030100097FB1EF400940E941E1857FD07D00E94D3
:10302000E51707FC03D04EF40C941E1850954095FC
:10303000309521953F4F4F4F5F4F08959095809564
:10304000709561957F4F8F4F9F4F08956927962701
:1030500069277827872778270895002E083090F071
:10306000982F872F762F652F542F432F322F22270B
:103070000850F4CF220F331F441F551F661F771FC0
:10308000881F991F0A95B2F7002D089597FD109497
:10309000002E083098F00850232F342F452F562F3C
:1030A000672F782F892F912DF4CF159497958795B9
:1030B0007795679557954795379527950A95AAF778
:1030C0001124002D0895AA1BBB1B51E107C0AA1FA4
:1030D000BB1FA617B70710F0A61BB70B881F991FB9
:1030E0005A95A9F780959095BC01CD010895EE0FF2
:1030F000FF1F0590F491E02D0994FB01DC0102C053
:1031000001900D9241505040D8F70895F894FFCFA8
:103110004C012A0190016E01D401B201CD02A2023C
:1031200077024C022102CD02A20277024C02210258
:10313000F6010403FC020100FF01000068325F7326
:1031400069676E616C000000000000000000000074
:103150000000000000000000000000000000657496
:1031600068616E6F6C5F7369676E616C0000000070
:10317000000000000000000000000000000000004F
:10318000626173656C696E653200000000000000CA
:10319000000000000000000000000000000000002F
:1031A0000000626173656C696E65310000000000AB
:1031B000000000000000000000000000000000000F
:1031C00000000000636F325F6571000000000000C6
:1031D00000000000000000000000000000000000EF
:1031E00000000000000074564F4300000000000083
:1031F00000000000000000000000000000000000CF
:1032000000000000000010270000000000000C205B
:10321000617365745F6162736F6C7574655F687507
:103220006D6964697479000000000000000000000E
:1032300000400D0300000102000A20506D6561731B
:103240007572655F7369676E616C730000000000E2
:10325000000000000000000000000000E803000083
:103260000000000003201E6961715F7365745F6276
:103270006173656C696E650000000000000000006D
:1032800000000000000000102700000401020002FE
:1032900020156961715F6765745F626173656C6950
:1032A0006E6500000000000000000000000000004B
:1032B000000050C30000080102000120086961718C
:1032C0005F6D6561737572650000000000000000AD
:1032D00000000000000000000000000000102700B7
:1032E00000000000000020036961715F696E69746D
:1032F00000000000000000000000000000000000CE
:103300000000000000000000090020000C01050082
:10331000F802010016010600FA0201000000000098
:1033200000000000202F3682000000008502E50129
:103330001202D2024302210235020000000078048A
:103340004B04110628049C003804290400000000E6
:10335000FD05E5011106F20254454D503A20006E7C
:10336000616E00696E66006F76660063000D0A008C
:10337000546869732066756E6374696F6E206F6E32
:103380006C7920737570706F727420666F72204450
:1033900048543130004661696C656420746F207256
:1033A00065616420627974650A004661696C6564D0
:1033B00020746F207365742073797374656D206356
:1033C0006F6E6620726567200A00676574207374EB
:1033D00061747573206572726F722100446576693D
:1033E000636520627573792100426567696E0053D9
:1033F0004750206661696C6564006572726F722067
:1034000072656164696E67207369676E616C7300D1
:1034100045525200434F32203A200054564F433A0F
:0A342000200070706D0070706200F3
:00000001FF
